{
  "contractName": "MyContract1",
  "abi": [
    {
      "inputs": [
        {
          "internalType": "address",
          "name": "tokenAddress",
          "type": "address"
        }
      ],
      "stateMutability": "nonpayable",
      "type": "constructor"
    },
    {
      "anonymous": false,
      "inputs": [
        {
          "indexed": false,
          "internalType": "uint256",
          "name": "amount",
          "type": "uint256"
        },
        {
          "indexed": false,
          "internalType": "address",
          "name": "tokenTransfered",
          "type": "address"
        }
      ],
      "name": "NewTransfer",
      "type": "event"
    },
    {
      "inputs": [
        {
          "internalType": "address",
          "name": "recipient",
          "type": "address"
        },
        {
          "internalType": "uint256",
          "name": "amount",
          "type": "uint256"
        }
      ],
      "name": "interactWithToken",
      "outputs": [],
      "stateMutability": "nonpayable",
      "type": "function"
    },
    {
      "inputs": [],
      "name": "readAge",
      "outputs": [
        {
          "internalType": "uint256",
          "name": "",
          "type": "uint256"
        }
      ],
      "stateMutability": "view",
      "type": "function"
    },
    {
      "inputs": [
        {
          "internalType": "uint256",
          "name": "_age",
          "type": "uint256"
        }
      ],
      "name": "setAge",
      "outputs": [],
      "stateMutability": "nonpayable",
      "type": "function"
    },
    {
      "inputs": [
        {
          "internalType": "uint256",
          "name": "_i",
          "type": "uint256"
        }
      ],
      "name": "readBalance",
      "outputs": [
        {
          "internalType": "uint256",
          "name": "",
          "type": "uint256"
        }
      ],
      "stateMutability": "view",
      "type": "function"
    },
    {
      "inputs": [
        {
          "internalType": "uint256",
          "name": "_newVal",
          "type": "uint256"
        }
      ],
      "name": "addBalance",
      "outputs": [],
      "stateMutability": "nonpayable",
      "type": "function"
    },
    {
      "inputs": [
        {
          "internalType": "address",
          "name": "trader",
          "type": "address"
        }
      ],
      "name": "readTraderBalances",
      "outputs": [
        {
          "internalType": "uint256",
          "name": "",
          "type": "uint256"
        }
      ],
      "stateMutability": "view",
      "type": "function"
    },
    {
      "inputs": [
        {
          "internalType": "address",
          "name": "trader",
          "type": "address"
        },
        {
          "internalType": "uint256",
          "name": "newVal",
          "type": "uint256"
        }
      ],
      "name": "updateTraderBalances",
      "outputs": [],
      "stateMutability": "nonpayable",
      "type": "function"
    },
    {
      "inputs": [
        {
          "internalType": "address",
          "name": "trader",
          "type": "address"
        },
        {
          "internalType": "uint256",
          "name": "newVal",
          "type": "uint256"
        }
      ],
      "name": "addTraderBalances",
      "outputs": [],
      "stateMutability": "nonpayable",
      "type": "function"
    }
  ],
  "bytecode": "0x608060405234801561001057600080fd5b506040516105543803806105548339818101604052602081101561003357600080fd5b810190808051906020019092919050505080600460006101000a81548173ffffffffffffffffffffffffffffffffffffffff021916908373ffffffffffffffffffffffffffffffffffffffff160217905550506104bf806100956000396000f3fe608060405234801561001057600080fd5b50600436106100885760003560e01c8063ca5d0a1e1161005b578063ca5d0a1e14610189578063ce08a0f2146101e1578063d5dcf1271461022f578063d91921ed1461025d57610088565b80634aac8ef71461008d5780637e4d8a61146100ab5780639f700267146100f9578063bac25a021461013b575b600080fd5b61009561028b565b6040518082815260200191505060405180910390f35b6100f7600480360360408110156100c157600080fd5b81019080803573ffffffffffffffffffffffffffffffffffffffff16906020019092919080359060200190929190505050610294565b005b6101256004803603602081101561010f57600080fd5b8101908080359060200190929190505050610359565b6040518082815260200191505060405180910390f35b6101876004803603604081101561015157600080fd5b81019080803573ffffffffffffffffffffffffffffffffffffffff1690602001909291908035906020019092919050505061037a565b005b6101cb6004803603602081101561019f57600080fd5b81019080803573ffffffffffffffffffffffffffffffffffffffff1690602001909291905050506103c2565b6040518082815260200191505060405180910390f35b61022d600480360360408110156101f757600080fd5b81019080803573ffffffffffffffffffffffffffffffffffffffff1690602001909291908035906020019092919050505061040b565b005b61025b6004803603602081101561024557600080fd5b8101908080359060200190929190505050610453565b005b6102896004803603602081101561027357600080fd5b810190808035906020019092919050505061045d565b005b60008054905090565b600460009054906101000a900473ffffffffffffffffffffffffffffffffffffffff1673ffffffffffffffffffffffffffffffffffffffff1663a9059cbb83836040518363ffffffff1660e01b8152600401808373ffffffffffffffffffffffffffffffffffffffff1673ffffffffffffffffffffffffffffffffffffffff16815260200182815260200192505050600060405180830381600087803b15801561033d57600080fd5b505af1158015610351573d6000803e3d6000fd5b505050505050565b60006002828154811061036857fe5b90600052602060002001549050919050565b80600360008473ffffffffffffffffffffffffffffffffffffffff1673ffffffffffffffffffffffffffffffffffffffff168152602001908152602001600020819055505050565b6000600360008373ffffffffffffffffffffffffffffffffffffffff1673ffffffffffffffffffffffffffffffffffffffff168152602001908152602001600020549050919050565b80600360008473ffffffffffffffffffffffffffffffffffffffff1673ffffffffffffffffffffffffffffffffffffffff168152602001908152602001600020819055505050565b8060008190555050565b60028190806001815401808255809150506001900390600052602060002001600090919091909150555056fea26469706673582212206b228fd2cba32e5861b7dda3db97bedb2c88a227907116b7e6796259dfeb58d964736f6c63430006000033",
  "source": "pragma solidity ^0.6.0;\n\nimport './IERC20.sol';\n\ncontract MyContract1 {\n\n    uint age;\n    bool foo;\n    uint[] balances;\n    mapping(address => uint) traderBalances;\n    IERC20 token;\n\n    constructor(address tokenAddress) public {\n        token = IERC20(tokenAddress);\n    }\n\n    function interactWithToken(address recipient, uint amount) external {\n        token.transfer(recipient, amount);\n    }\n\n    function readAge() external view returns(uint) {\n        return age;\n    }\n\n    function setAge(uint _age) external {\n        age = _age;\n    }\n\n    function readBalance(uint _i) external view returns(uint) {\n        return balances[_i];\n    }\n\n    function addBalance(uint _newVal) external {\n        balances.push(_newVal);\n    }\n\n    function readTraderBalances(address trader) external view returns(uint) {\n        return traderBalances[trader];\n    }\n\n    function updateTraderBalances(address trader, uint newVal) external {\n        traderBalances[trader] = newVal;\n    }\n\n    function addTraderBalances(address trader, uint newVal) external {\n        traderBalances[trader] = newVal;\n    }\n\n    enum TraderStatus { Inactive, Active, Deleted }\n    struct Trader {\n        address traderAddress;\n        uint balance;\n        bool isActive;\n        TraderStatus status;\n    }\n    mapping(address => Trader) traders;\n\n    event NewTransfer(uint amount, address tokenTransfered);\n}\n",
  "sourcePath": "/Users/macbookpro/Documents/workspace/course-solidity-profitable-flashloans/contracts/MyContract1.sol",
  "compiler": {
    "name": "solc",
    "version": "0.6.0+commit.26b70077.Emscripten.clang"
  },
  "schemaVersion": "3.4.3",
  "updatedAt": "2021-10-12T17:25:16.801Z",
  "devdoc": {
    "methods": {}
  },
  "userdoc": {
    "methods": {}
  }
}